{
  "contractName": "Tickets",
  "abi": [
    {
      "inputs": [],
      "stateMutability": "nonpayable",
      "type": "constructor"
    },
    {
      "inputs": [],
      "name": "owner",
      "outputs": [
        {
          "internalType": "address",
          "name": "",
          "type": "address"
        }
      ],
      "stateMutability": "view",
      "type": "function"
    },
    {
      "inputs": [
        {
          "internalType": "uint256",
          "name": "",
          "type": "uint256"
        }
      ],
      "name": "tickets",
      "outputs": [
        {
          "internalType": "uint256",
          "name": "price",
          "type": "uint256"
        },
        {
          "internalType": "address",
          "name": "owner",
          "type": "address"
        }
      ],
      "stateMutability": "view",
      "type": "function"
    },
    {
      "inputs": [
        {
          "internalType": "uint256",
          "name": "_index",
          "type": "uint256"
        }
      ],
      "name": "buyTicket",
      "outputs": [],
      "stateMutability": "payable",
      "type": "function"
    }
  ],
  "bytecode": "0x6080604052335f806101000a81548173ffffffffffffffffffffffffffffffffffffffff021916908373ffffffffffffffffffffffffffffffffffffffff16021790555034801561004e575f80fd5b505f5b600a8110156100ed5767016345785d8a0000600182600a8110610077576100766100f3565b5b600202015f01819055505f600182600a8110610096576100956100f3565b5b600202016001015f6101000a81548173ffffffffffffffffffffffffffffffffffffffff021916908373ffffffffffffffffffffffffffffffffffffffff16021790555080806100e590610156565b915050610051565b5061019d565b7f4e487b71000000000000000000000000000000000000000000000000000000005f52603260045260245ffd5b7f4e487b71000000000000000000000000000000000000000000000000000000005f52601160045260245ffd5b5f819050919050565b5f6101608261014d565b91507fffffffffffffffffffffffffffffffffffffffffffffffffffffffffffffffff820361019257610191610120565b5b600182019050919050565b610381806101aa5f395ff3fe608060405260043610610033575f3560e01c806350b447121461003757806367dd74ca146100745780638da5cb5b14610090575b5f80fd5b348015610042575f80fd5b5061005d60048036038101906100589190610265565b6100ba565b60405161006b9291906102de565b60405180910390f35b61008e60048036038101906100899190610265565b610100565b005b34801561009b575f80fd5b506100a461020b565b6040516100b19190610305565b60405180910390f35b600181600a81106100c9575f80fd5b600202015f91509050805f015490806001015f9054906101000a900473ffffffffffffffffffffffffffffffffffffffff16905082565b600a8110801561011057505f8110155b610118575f80fd5b5f73ffffffffffffffffffffffffffffffffffffffff16600182600a81106101435761014261031e565b5b600202016001015f9054906101000a900473ffffffffffffffffffffffffffffffffffffffff1673ffffffffffffffffffffffffffffffffffffffff1614610189575f80fd5b600181600a811061019d5761019c61031e565b5b600202015f01543410156101af575f80fd5b33600182600a81106101c4576101c361031e565b5b600202016001015f6101000a81548173ffffffffffffffffffffffffffffffffffffffff021916908373ffffffffffffffffffffffffffffffffffffffff16021790555050565b5f8054906101000a900473ffffffffffffffffffffffffffffffffffffffff1681565b5f80fd5b5f819050919050565b61024481610232565b811461024e575f80fd5b50565b5f8135905061025f8161023b565b92915050565b5f6020828403121561027a5761027961022e565b5b5f61028784828501610251565b91505092915050565b61029981610232565b82525050565b5f73ffffffffffffffffffffffffffffffffffffffff82169050919050565b5f6102c88261029f565b9050919050565b6102d8816102be565b82525050565b5f6040820190506102f15f830185610290565b6102fe60208301846102cf565b9392505050565b5f6020820190506103185f8301846102cf565b92915050565b7f4e487b71000000000000000000000000000000000000000000000000000000005f52603260045260245ffdfea264697066735822122050fa8866e4cab88fd7b6388972a3e3ede777263feedd9ac6d92ccacaa668d66d64736f6c63430008150033",
  "immutableReferences": {},
  "source": "// SPDX-License-Identifier: MIT \r\npragma solidity >=0.4.22 <0.9.0;\r\n\r\nuint256 constant TOTAL_TICKETS = 10;\r\n\r\ncontract Tickets {\r\n    address public owner = msg.sender;\r\n\r\n    struct Ticket {\r\n        uint256 price;\r\n        address owner;\r\n    }\r\n\r\n    Ticket[TOTAL_TICKETS] public tickets;\r\n\r\n    constructor() {\r\n        for (uint256 i = 0; i < TOTAL_TICKETS; i++) {\r\n            tickets[i].price = 1e17; // 0.1 ETH\r\n            tickets[i].owner = address(0x0);\r\n        }\r\n    }\r\n\r\n    function buyTicket(uint256 _index) external payable {\r\n        require(_index < TOTAL_TICKETS && _index >= 0);\r\n        require(tickets[_index].owner == address(0x0));\r\n        require(msg.value >= tickets[_index].price);\r\n        tickets[_index].owner = msg.sender;\r\n    }\r\n}",
  "sourcePath": "C:\\Truffle\\contracts\\Tickets.sol",
  "compiler": {
    "name": "solc",
    "version": "0.8.21+commit.d9974bed.Emscripten.clang"
  },
  "schemaVersion": "3.4.16",
  "updatedAt": "2024-10-08T13:29:31.575Z",
  "devdoc": {
    "kind": "dev",
    "methods": {},
    "version": 1
  },
  "userdoc": {
    "kind": "user",
    "methods": {},
    "version": 1
  }
}